:1010AD00576169742054696D653A00202020202015
:1010BD0020202000205365637300312D4368616E3D
:1010CD006765205061737300322D4368616E6765EB
:1010DD002053657420546D70005468726573686F89
:1010ED006C642052616E6765004578636565646563
:1010FD006400594F552041524520424C4F434B45BA
:10110D00440054525920414741494E204C415445C9
:0C111D005200496E636F727265637400CB
:10118F007F2A120E558F23EF6053B4441CE5246061
:10119F00181213CA1213F812140F1524AF247B0060
:1011AF007A00791A12126780D7E52464057009E571
:1011BF0023642360287F0122E523B42A037F0022C2
:1011CF00E523642360BAE523644460B4AF240524A7
:1011DF00741A2FF8A623AF231213B880A37F02220D
:03000300020B9C51
:100B9C00C0E0C0F0C083C082C0D075D000C000C01F
:0D0BAC0001C002C003C004C005C006C007A0
:100BB900E518640370511213CA7BFF7A1079AD12DC
:100BC90012DBE519603E7F20120E558F23E5236461
:100BD9002A7003020E3712140FE5196409700C7B91
:100BE900FF7A1079B81212DB12140FAF1915191206
:100BF90012337BFF7A1079C11212DB7F847E0312D4
:100C0900132480BE7518001213CA1213F812140F98
:100C1900751F0075240012118F7521008F22E5229E
:100C290045217003020E37E5226401452160E7750D
:100C39002300E523C395245014AF237E00121360CB
:100C4900741A2523F8E6B50704052380E51213CAAB
:100C5900E52364056003020DFCF518D296C2977B63
:100C6900FF7A1079C71212DB12140F7BFF7A107901
:100C7900D51212DB7F41120E558F24E524643170A1
:100C8900491213CA1213F812140F752400751F00A4
:100C990012118F7521008F22E52245217003020E62
:100CA90037E5226401452160E7752300C3E52394F4
:100CB90005748094805010741A2523F8E6FDAF233B
:100CC900121342052380E5020DF1E5246432600325
:100CD900020E371213CA1213E612140F7524007587
:100CE9002100752200751F007F2A120E558F23EFF0
:100CF9007003020D80B4441CE52460181213CA1253
:100D090013E612140F1524AF247B007A00791A1206
:100D1900126780D4E523642A7003020E37AF247E5C
:100D290000D3EF9400748094804006E52364236027
:100D390046D3EF9403EE6480948050ACE523C394CA
:100D49003040A5E523D39439509EAE21AF227C00D3
:100D59007D0A120B7CEF2523FFEC3ECF24D0F52230
:100D6900EF34FFF521AF231213B8AF240524741A09
:100D79002FF8A623020CF1D3E5229496E5219400DD
:100D89005048752300C3E523940374809480500E62
:100D9900E5232408FF7DFF121342052380E7752010
:100DA90000752300E523C39524503D741A2523F8C3
:100DB900E6FD24D0FFE52075F00AA42FF520E523F0
:100DC9002408FF121342052380DA1213CA7BFF7A23
:100DD9001079E61212DB12140F7BFF7A1079F612E2
:100DE90012DB121408020CDC1213CA1213EF1214CC
:100DF90008803B0518C296D297E518640370201243
:100E090013CA7BFF7A1079FF1212DB12140F7BFFD2
:100E19007A11790F1212DB12140875193C800F7BB5
:100E2900FF7A11791F1212DB121408020C10121327
:010E3900CAEE
:100E3A00D007D006D005D004D003D002D001D0000C
:0B0E4A00D0D0D082D083D0F0D0E032B6
:100EFE0075A881D2881211EFE4F520F518C297C2B9
:100F0E0096F519F523AF237E00C3EF9403748094F6
:100F1E00805022EF2408FFEE33FE1213608F24EF71
:100F2E00F46012E52424D0FFE52075F00AA42FF515
:100F3E0020052380D0E519600F7F8A7E02121324CC
:100F4E001519E5197002F5181210258F2C8E2B8DA0
:100F5E002A8C297F851213A6AF2CAE2BAD2AAC2975
:100F6E00121129AC20E4120A81AB2CAA2BA92AA8B3
:100F7E00291209FE60084006C296D2978004D296C6
:0B0F8E00C2977F2C7E0112132480AA62
:10132400D3EF9400EE940040147D7A7C00ED1D70A0
:0D133400011CED4C70F7EF1F70E61E80E30A
:011341002289
:03141400C295225C
:0913D400C294C295D294D2952274
:0913DD00C294D295D294C295226B
:0B137E00121291121389AF0412129199
:0A138900C294D295D2942095FD2263
:07140100C294D295D294229F
:10129100E4FEEEC39408748094805018C294C37421
:1012A100079EFDF8EF088002C313D8FC139295D274
:0412B100940E80DE39
:0112B5002216
:1012B600E4FFFEEEC39408748094805017C294D263
:1012C6009430950DA8067480088002C313D8FC429A
:0412D600070E80DFA0
:0112DA0022F1
:10134200AC05AB071214147FA0121291121389AFCD
:0E1352000312137E1213D47F0A7E00021324AE
:02136000AC07D8
:101362001214147FA012137E1213DD7FA1121291A8
:0C1372001213891212B61214010213D4D7
:1013930010083738394134353642313233432A3035
:0213A3002344E1
:100E5500C2A3C2A2C2A1C2A0D2A7D2A6D2A5D2A421
:100E650030A40D30A50A30A60730A704BF20F12213
:100E7500C2A0D2A3D2A2D2A130A40930A50630A621
:100E85000320A704E4FD803AC2A1D2A030A4093012
:100E9500A50630A60320A7047D018026C2A2D2A103
:100EA50030A40930A50630A60320A7047D028012D0
:100EB500C2A3D2A230A40930A50630A60320A702FA
:100EC5007D0320A404E4FE801320A5047E01800C8C
:100ED50020A6047E02800520A7027E0330A40930E7
:100EE500A50630A60320A705BF20F18000ED25E06B
:080EF50025E024082EF8E6FFB9
:010EFD0022D2
:1011EF007F0F7E001213247F301213A67F057E001F
:1011FF001213247F301213A67F017E001213247F57
:10120F00301213A67F017E001213247F381213A60B
:10121F007F101213A67F011213A67F061213A67F4B
:04122F000C0213A6F4
:1013A6008F80C2B0C2B1D2B37F017E00121324C2B5
:0213B600B32260
:1013B8008F80D2B0C2B1D2B37F017E00121324C293
:0213C800B3224E
:1012DB008B258A268927AB25AA26A927120B3660D0
:1012EB00130527E5277002052614F9120B36FF129A
:0512FB0013B880E2229F
:10123300E4F535EF601B75F00A84E5F02430FEAD6C
:1012430035053574322DF8A606EF75F00A84FF8054
:10125300E2E535600E153574322535F8E6FF1213D5
:04126300B880EE223F
:081129008F308E2F8D2E8C2DCE
:10113100120AB58F311212337535027F2E1213B890
:10114100AF30AE2FAD2EAC2D120AB58F31E5356023
:101151003CAC31E4120A81A804A905AA06AB07AF89
:1011610030AE2FAD2EAC2D120803E4FBFA792078B6
:10117100411208F88F308E2F8D2E8C2D120AB58FCB
:0D11810031E5312430FF1213B8153580C060
:01118E00223E
:1013000053657420546D70005375636573730045A5
:101310006E74657220352044696774205061737360
:04132000203A20004F
:071408007FB87E0B021324E4
:0913E6007BFF7A1379000212DB8F
:101267008F258B268A278928E4F536E536C3952509
:101277005017AB26AA27A928853682758300120B3B
:0A1287004FFF1213B8053680E22273
:0913EF007BFF7A1379080212DB7E
:0913F8007BFF7A13790F0212DB6E
:05140F007FC00213A6DE
:0A13CA007F011213A67F800213A614
:10102500E4FDFCD293D292D291D290C293C290D2D7
:1010350090C290D290C290D290C290C291D290C2EA
:1010450090D290C290D290C290D290FBEBC3940CF8
:10105500748094805024C290D29030921AC3740B3D
:101065009BFF7E007401A807088005C333CE33CEED
:10107500D8F94205EE42040B80D2D293AE04AF05F7
:10108500E4120A7CE4FBFA79A0783A1208F88F306A
:101095008E2F8D2E8C2DE4FFFE7DC87C42AB30AAB1
:0810A5002FA92EA82D0208F866
:10080000020B21E86480F8E933E83360110460F0FA
:10081000ED33EC337009E8FCE9FDEAFEEBFF22045E
:1008200060DED3EB9FEA9EE99DE8C2E78CF0C2F759
:1008300095F0400CE8CCF8E9CDF9EACEFAEBCFFB25
:10084000120AEC85D0F05804700320D5B3E8047088
:10085000075002B2D5020B2B92D5EC0460F7E4CC22
:10086000C0E0C398F8603B94186008400DD0E0FBEE
:10087000020B03E4FBFAC9FC8028E830E406E4C973
:10088000FBE4CAFCE830E305E4C9CACBFCE8540742
:100890006010F8C3E913F9EA13FAEB13FBEC13FC4D
:1008A000D8F130F52FC3E49CFCEF9BFFEE9AFEEDF0
:1008B00099FDD0E0FBEF4E4D4C701222DB03020B92
:1008C00028EC2CFCEF33FFEE33FEED33FDED30E78B
:1008D000EB020B03EF2BFFEE3AFEED39FDD0E0FB10
:1008E00050130BBB0003020B2BED13FDEE13FEEFB9
:0808F00013FFEC13FC020B03E3
:1008F800EC4D6011E8497017ED33EC3304600DE4FA
:10090800FCFFFEFD22E933E8330470F8020B2112E4
:100918000AEC58046009E4CC2481500628500902E6
:100928000B2B284003020B28C0E0EB4A7044B98027
:1009380006D0E0FB020B17EF4E701CBD8008EBFFE2
:10094800EAFEE9FD80EBE98DF0A4FEE5F00209E19D
:10095800E9CDF9EAFEEBFFEF89F0A4FCE5F0CE89DA
:10096800F0A42EFFE435F0CD89F0A42DFEE435F097
:100978008067EF4E7005BD80D780C3EF8BF0A4ACC5
:10098800F0EE8BF0A42CFCE435F0F8EF8AF0A42C00
:10099800E5F038FCE433CB8DF0A42CFCE5F03BF813
:1009A800EE8AF0A42CFCE5F038F8E433CF89F0A403
:1009B8002CFCE5F038CF3400CE89F0A42FFFE5F009
:1009C8003EFEE433C98DF0A42EFEE5F039CD8AF061
:1009D800A42FFFE5F03EFEE43DFD33D0E0FB5007D9
:1009E8000BBB000F020B2BEC2CFCEF33FFEE33FE9E
:0609F800ED33FD020B03CC
:1009FE0074F8CC6480CCC86480C8F58204604FC3A0
:100A0E00EB9FF5F0EA9E42F0E99D42F0E89C45F03E
:100A1E00603C501DE5825FFFE582D313CB5BCBF4C8
:100A2E002B5582FB50280ABA002409B900200880F1
:100A3E001DE5825BFBE582D313CF5FCFF4C3132F8B
:100A4E005582FF50090EBE00050DBD00010CC3EB13
:100A5E009FF5F0EA9E42F0E99D42F0E89C45F06079
:090A6E0007CC4820E701B3EC229B
:100A770075F020800E75F010800575F0087D007EFA
:100A8700007F003392D530D503120B8EEC33401024
:100A9700EF33FFEE33FEED33FDEC33FCD5F0ED2203
:0E0AA700E5F0247EA2D513CC92E7CDCEFF223F
:100AB500EDD2E7CD33EC3392D524814006E4FFFE39
:100AC500FDFC22FCE4CFCECDCC24E0501174FF8098
:100AD500EDC3CC13CCCD13CDCE13CECF13CF047035
:070AE500F030D5DE020B8E9C
:100AEC00E9D2E7C933E833F892D5EDD2E7CD33EC50
:070AFC0033FC5002B2D522C9
:100B0300EC30E7100FBF000C0EBE00080DBD000453
:100B13000BEB6014A2D5EB13FCED92E7FD2274FFFF
:100B2300FCFDFEFF22E480F8A2D574FF13FC7D8058
:030B3300E480EF6C
:03000000020F9953
:0C0F9900787FE4F6D8FD758136020FE089
:100B3600BB010689828A83E0225002E722BBFE02BD
:090B4600E32289828A83E49322F0
:100B4F00BB010CE58229F582E5833AF583E022505B
:100B5F0006E92582F8E622BBFE06E92582F8E222A5
:0D0B6F00E58229F582E5833AF583E49322BF
:100B7C00EF8DF0A4A8F0CF8CF0A428CE8DF0A42E8D
:020B8C00FE2247
:0E0B8E00C3E49FFFE49EFEE49DFDE49CFC2278
:100FA500020EFEE493A3F8E493A34003F68001F256
:100FB50008DFF48029E493A3F85407240CC8C3334D
:100FC500C4540F4420C8834004F456800146F6DF1C
:100FD500E4800B0102040810204080901393E47E06
:100FE500019360BCA3FF543F30E509541FFEE49311
:100FF500A360010ECF54C025E060A840B8E493A3D8
:10100500FAE493A3F8E493A3C8C582C8CAC583CA02
:10101500F0A3C8C582C8CAC583CADFE9DEE780BEBA
:0113A5000047
:00000001FF
