:0302EA000200030C
:1002AA008F80D2A7C2A6D2A57F027E00120278C290
:0202BA00A5227B
:1002BC008F80C2A7C2A6D2A57F027E00120278C28E
:0202CC00A52269
:100296007F021202BC7F381202BC7F0C1202BC7FA6
:0402A600010202BC93
:100255008B0A8A0B890CAB0AAA0BA90C12020BFF9D
:1002650060101202AA7401250CF50CE4350BF50B90
:0302750080E42200
:020194008F0AD0
:10019600E4F515C3E50A64809480500B7F2E1202A5
:1001A600AAE50AF404F50AE50A75F00A1201E9AFB0
:1001B600F0EF2430FFAE150515740B2EF8A607E5F3
:1001C6000A75F00A1201E9F50A70DCD3E5156480B8
:1001D6009480400E740A2515F8E6FF1202AA15153A
:0201E60080E9AE
:0101E80022F4
:0400CD008E0A8F0BFD
:1000D100E4F511E50B450A70057F300202AAD3E56C
:1000E1000B9400E50A94004036E50B540FF510D34C
:1000F10094094008E5102437F51080067430251066
:10010100F510740C2511F8A610E50AC4F854F0C8CE
:1001110068F50AE50BC4540F48F50B051180BF15AE
:1001210011C3E51164809480400E740C2511F8E62A
:08013100FF1202AA151180E97A
:0101390022A3
:10027800D3EF9400EE940040147D7A7C00ED1D705D
:0D028800011CED4C70F7EF1F70E61E80E3C7
:010295002246
:10013A005363616E6E696E672E2E2E00493243201C
:10014A004465766963653A00307800493243204451
:10015A006576696365733A004E6F204932432044DD
:10016A00657669636500466F756E640044657669F5
:10017A0063657320466F756E643A005363616E203F
:0A018A00436F6D706C6574656400CE
:0702E300D2B6D2B7C2B72268
:0902DA00C2B6C2B7D2B6D2B722F7
:10022400E4FEC2B6C374079EFDF8EF088002C31350
:10023400D8FC1392B7D2B60EBE08E7C2B6D2B7D274
:10024400B67F0A7E00120278A2B79200C2B6A2005C
:010254002287
:10000300E4F508F5091202967F801202BC7BFF7AA1
:1000130001793A1202557FC01202BC7BFF7A017943
:10002300461202557BFF7A017952120255AF097EBF
:10003300001200CDE4F5091202E3E50925E0FF1201
:100043000224E433702705087FC01202BC7BFF7AC9
:100053000179551202557BFF7A017952120255AF8D
:10006300097E001200CD7FE87E031202781202DAC5
:100073007F647E001202780509E509C3947F40B7C7
:10008300E5087F01701E1202BC7F801202BC7BFF59
:100093007A0179621202557FC01202BC7BFF7A019A
:1000A300797080211202BC7F801202BC7BFF7A012F
:1000B3007976120255AF081201947FC01202BC7BFD
:0A00C300FF7A01798512025580FED4
:030000000202CE2B
:0C02CE00787FE4F6D8FD7581200202EA7A
:1001E900C2D530F707B2D563F0FF05F030E70CB29E
:1001F900D5F4048463F0FF05F080018430D502F45E
:020209000422CD
:10020B00BB010689828A83E0225002E722BBFE02F1
:09021B00E32289828A83E4932224
:00000001FF
